{
  "contractName": "ticketingSystem",
  "abi": [
    {
      "constant": true,
      "inputs": [
        {
          "name": "",
          "type": "uint256"
        }
      ],
      "name": "artistRegister",
      "outputs": [
        {
          "name": "name",
          "type": "bytes32"
        },
        {
          "name": "owner",
          "type": "address"
        },
        {
          "name": "artistCategory",
          "type": "int256"
        },
        {
          "name": "ticketSold",
          "type": "int256"
        }
      ],
      "payable": false,
      "stateMutability": "view",
      "type": "function"
    },
    {
      "constant": false,
      "inputs": [
        {
          "name": "_name",
          "type": "bytes32"
        },
        {
          "name": "_artistCategory",
          "type": "int256"
        },
        {
          "name": "_ticketSold",
          "type": "int256"
        }
      ],
      "name": "creatArtist",
      "outputs": [],
      "payable": false,
      "stateMutability": "nonpayable",
      "type": "function"
    },
    {
      "constant": false,
      "inputs": [
        {
          "name": "_artistId",
          "type": "uint256"
        },
        {
          "name": "_newName",
          "type": "bytes32"
        },
        {
          "name": "_newArtistCategory",
          "type": "int256"
        },
        {
          "name": "_newTicketSold",
          "type": "int256"
        }
      ],
      "name": "modifyArtist",
      "outputs": [],
      "payable": false,
      "stateMutability": "nonpayable",
      "type": "function"
    }
  ],
  "bytecode": "0x6080604052600160005534801561001557600080fd5b50610340806100256000396000f3fe608060405260043610610057576000357c0100000000000000000000000000000000000000000000000000000000900463ffffffff1680630daada711461005c5780631b8e2fa6146100b55780636d1d82e614610145575b600080fd5b34801561006857600080fd5b506100b36004803603608081101561007f57600080fd5b8101908080359060200190929190803590602001909291908035906020019092919080359060200190929190505050610194565b005b3480156100c157600080fd5b506100ee600480360360208110156100d857600080fd5b810190808035906020019092919050505061025b565b604051808581526020018473ffffffffffffffffffffffffffffffffffffffff1673ffffffffffffffffffffffffffffffffffffffff16815260200183815260200182815260200194505050505060405180910390f35b34801561015157600080fd5b506101926004803603606081101561016857600080fd5b810190808035906020019092919080359060200190929190803590602001909291905050506102ab565b005b6001600085815260200190815260200160002060010160009054906101000a900473ffffffffffffffffffffffffffffffffffffffff1673ffffffffffffffffffffffffffffffffffffffff163373ffffffffffffffffffffffffffffffffffffffff1614151561020457600080fd5b82600160008681526020019081526020016000206000018190555081600160008681526020019081526020016000206002018190555080600160008681526020019081526020016000206003018190555050505050565b60016020528060005260406000206000915090508060000154908060010160009054906101000a900473ffffffffffffffffffffffffffffffffffffffff16908060020154908060030154905084565b8260016000805481526020019081526020016000206000018190555081600160008054815260200190815260200160002060020181905550806001600080548152602001908152602001600020600301819055506001600080828254019250508190555050505056fea165627a7a723058209380ffe5c451c8b273a6f814adc010d710be0f4696d74226541f6afd37f4ed8b0029",
  "source": "pragma solidity ^0.5.0;\r\n\r\ncontract ticketingSystem {\r\n\r\n    struct Artist\r\n    {\r\n        bytes32 name;\r\n        address owner;\r\n        int artistCategory;\r\n        int ticketSold;\r\n    }\r\n\r\n    uint artistId = 1;\r\n     \r\n    mapping (uint => Artist) public artistRegister;\r\n\r\n    function creatArtist(bytes32 _name, int _artistCategory, int _ticketSold ) public {\r\n        artistRegister[artistId].name = _name;\r\n        artistRegister[artistId].artistCategory = _artistCategory;\r\n        artistRegister[artistId].ticketSold = _ticketSold;\r\n        artistId += 1;\r\n    }\r\n\r\n    function modifyArtist(uint _artistId, bytes32 _newName, int _newArtistCategory, int _newTicketSold) public {\r\n        \r\n        require (msg.sender ==  artistRegister[_artistId].owner);\r\n        artistRegister[_artistId].name = _newName;\r\n        artistRegister[_artistId].artistCategory = _newArtistCategory;\r\n        artistRegister[_artistId].ticketSold = _newTicketSold;\r\n    }\r\n\r\n}",
  "sourcePath": "C:/Users/Pierre ROUBIOL/Desktop/ESILV/A4_S8/Blockchain Programming/TD7/contracts/ticketingSystem.sol",
  "compiler": {
    "name": "solc",
    "version": "0.5.0+commit.1d4f565a.Emscripten.clang"
  },
  "schemaVersion": "3.0.5",
  "updatedAt": "2019-03-22T16:53:30.256Z",
  "devdoc": {
    "methods": {}
  },
  "userdoc": {
    "methods": {}
  }
}